{
  "address": "0x394B81a9Fc096124c398B12129D1bCF38C599D4E",
  "abi": [
    {
      "inputs": [
        {
          "internalType": "string",
          "name": "baseURI",
          "type": "string"
        },
        {
          "internalType": "bytes32",
          "name": "_whitelistMerkleRoot",
          "type": "bytes32"
        },
        {
          "internalType": "bytes32",
          "name": "_ogWhitelistMerkleRoot",
          "type": "bytes32"
        },
        {
          "internalType": "uint256",
          "name": "_price",
          "type": "uint256"
        },
        {
          "internalType": "address",
          "name": "_fundsCollector",
          "type": "address"
        }
      ],
      "stateMutability": "nonpayable",
      "type": "constructor"
    },
    {
      "inputs": [
        {
          "internalType": "address",
          "name": "sender",
          "type": "address"
        },
        {
          "internalType": "uint256",
          "name": "tokenId",
          "type": "uint256"
        },
        {
          "internalType": "address",
          "name": "owner",
          "type": "address"
        }
      ],
      "name": "ERC721IncorrectOwner",
      "type": "error"
    },
    {
      "inputs": [
        {
          "internalType": "address",
          "name": "operator",
          "type": "address"
        },
        {
          "internalType": "uint256",
          "name": "tokenId",
          "type": "uint256"
        }
      ],
      "name": "ERC721InsufficientApproval",
      "type": "error"
    },
    {
      "inputs": [
        {
          "internalType": "address",
          "name": "approver",
          "type": "address"
        }
      ],
      "name": "ERC721InvalidApprover",
      "type": "error"
    },
    {
      "inputs": [
        {
          "internalType": "address",
          "name": "operator",
          "type": "address"
        }
      ],
      "name": "ERC721InvalidOperator",
      "type": "error"
    },
    {
      "inputs": [
        {
          "internalType": "address",
          "name": "owner",
          "type": "address"
        }
      ],
      "name": "ERC721InvalidOwner",
      "type": "error"
    },
    {
      "inputs": [
        {
          "internalType": "address",
          "name": "receiver",
          "type": "address"
        }
      ],
      "name": "ERC721InvalidReceiver",
      "type": "error"
    },
    {
      "inputs": [
        {
          "internalType": "address",
          "name": "sender",
          "type": "address"
        }
      ],
      "name": "ERC721InvalidSender",
      "type": "error"
    },
    {
      "inputs": [
        {
          "internalType": "uint256",
          "name": "tokenId",
          "type": "uint256"
        }
      ],
      "name": "ERC721NonexistentToken",
      "type": "error"
    },
    {
      "inputs": [],
      "name": "InsufficientFunds",
      "type": "error"
    },
    {
      "inputs": [],
      "name": "NotUniqueRootHash",
      "type": "error"
    },
    {
      "inputs": [],
      "name": "OnlyOGWhitelist",
      "type": "error"
    },
    {
      "inputs": [],
      "name": "OnlyWhitelist",
      "type": "error"
    },
    {
      "inputs": [
        {
          "internalType": "address",
          "name": "owner",
          "type": "address"
        }
      ],
      "name": "OwnableInvalidOwner",
      "type": "error"
    },
    {
      "inputs": [
        {
          "internalType": "address",
          "name": "account",
          "type": "address"
        }
      ],
      "name": "OwnableUnauthorizedAccount",
      "type": "error"
    },
    {
      "inputs": [],
      "name": "ReentrancyGuardReentrantCall",
      "type": "error"
    },
    {
      "inputs": [],
      "name": "SalePhaseNotStarted",
      "type": "error"
    },
    {
      "inputs": [],
      "name": "SoldOut",
      "type": "error"
    },
    {
      "anonymous": false,
      "inputs": [
        {
          "indexed": true,
          "internalType": "address",
          "name": "owner",
          "type": "address"
        },
        {
          "indexed": true,
          "internalType": "address",
          "name": "approved",
          "type": "address"
        },
        {
          "indexed": true,
          "internalType": "uint256",
          "name": "tokenId",
          "type": "uint256"
        }
      ],
      "name": "Approval",
      "type": "event"
    },
    {
      "anonymous": false,
      "inputs": [
        {
          "indexed": true,
          "internalType": "address",
          "name": "owner",
          "type": "address"
        },
        {
          "indexed": true,
          "internalType": "address",
          "name": "operator",
          "type": "address"
        },
        {
          "indexed": false,
          "internalType": "bool",
          "name": "approved",
          "type": "bool"
        }
      ],
      "name": "ApprovalForAll",
      "type": "event"
    },
    {
      "anonymous": false,
      "inputs": [
        {
          "indexed": false,
          "internalType": "address",
          "name": "buyer",
          "type": "address"
        },
        {
          "indexed": true,
          "internalType": "uint256",
          "name": "tokenId",
          "type": "uint256"
        }
      ],
      "name": "KingPurchased",
      "type": "event"
    },
    {
      "anonymous": false,
      "inputs": [
        {
          "indexed": true,
          "internalType": "address",
          "name": "previousOwner",
          "type": "address"
        },
        {
          "indexed": true,
          "internalType": "address",
          "name": "newOwner",
          "type": "address"
        }
      ],
      "name": "OwnershipTransferred",
      "type": "event"
    },
    {
      "anonymous": false,
      "inputs": [
        {
          "indexed": true,
          "internalType": "address",
          "name": "from",
          "type": "address"
        },
        {
          "indexed": true,
          "internalType": "address",
          "name": "to",
          "type": "address"
        },
        {
          "indexed": true,
          "internalType": "uint256",
          "name": "tokenId",
          "type": "uint256"
        }
      ],
      "name": "Transfer",
      "type": "event"
    },
    {
      "inputs": [],
      "name": "AMOUNT_ON_SALE",
      "outputs": [
        {
          "internalType": "uint256",
          "name": "",
          "type": "uint256"
        }
      ],
      "stateMutability": "view",
      "type": "function"
    },
    {
      "inputs": [],
      "name": "FUNDS_COLLECTOR",
      "outputs": [
        {
          "internalType": "address",
          "name": "",
          "type": "address"
        }
      ],
      "stateMutability": "view",
      "type": "function"
    },
    {
      "inputs": [],
      "name": "OG",
      "outputs": [
        {
          "internalType": "uint256",
          "name": "",
          "type": "uint256"
        }
      ],
      "stateMutability": "view",
      "type": "function"
    },
    {
      "inputs": [],
      "name": "OPEN",
      "outputs": [
        {
          "internalType": "uint256",
          "name": "",
          "type": "uint256"
        }
      ],
      "stateMutability": "view",
      "type": "function"
    },
    {
      "inputs": [],
      "name": "PRICE",
      "outputs": [
        {
          "internalType": "uint256",
          "name": "",
          "type": "uint256"
        }
      ],
      "stateMutability": "view",
      "type": "function"
    },
    {
      "inputs": [],
      "name": "TOTAL_SUPPLY",
      "outputs": [
        {
          "internalType": "uint256",
          "name": "",
          "type": "uint256"
        }
      ],
      "stateMutability": "view",
      "type": "function"
    },
    {
      "inputs": [],
      "name": "WHITELIST",
      "outputs": [
        {
          "internalType": "uint256",
          "name": "",
          "type": "uint256"
        }
      ],
      "stateMutability": "view",
      "type": "function"
    },
    {
      "inputs": [
        {
          "internalType": "address",
          "name": "to",
          "type": "address"
        },
        {
          "internalType": "uint256",
          "name": "tokenId",
          "type": "uint256"
        }
      ],
      "name": "approve",
      "outputs": [],
      "stateMutability": "nonpayable",
      "type": "function"
    },
    {
      "inputs": [
        {
          "internalType": "address",
          "name": "owner",
          "type": "address"
        }
      ],
      "name": "balanceOf",
      "outputs": [
        {
          "internalType": "uint256",
          "name": "",
          "type": "uint256"
        }
      ],
      "stateMutability": "view",
      "type": "function"
    },
    {
      "inputs": [],
      "name": "baseTokenURI",
      "outputs": [
        {
          "internalType": "string",
          "name": "",
          "type": "string"
        }
      ],
      "stateMutability": "view",
      "type": "function"
    },
    {
      "inputs": [
        {
          "internalType": "uint256",
          "name": "tokenId",
          "type": "uint256"
        }
      ],
      "name": "getApproved",
      "outputs": [
        {
          "internalType": "address",
          "name": "",
          "type": "address"
        }
      ],
      "stateMutability": "view",
      "type": "function"
    },
    {
      "inputs": [
        {
          "internalType": "address",
          "name": "owner",
          "type": "address"
        },
        {
          "internalType": "address",
          "name": "operator",
          "type": "address"
        }
      ],
      "name": "isApprovedForAll",
      "outputs": [
        {
          "internalType": "bool",
          "name": "",
          "type": "bool"
        }
      ],
      "stateMutability": "view",
      "type": "function"
    },
    {
      "inputs": [
        {
          "internalType": "address",
          "name": "_address",
          "type": "address"
        },
        {
          "internalType": "bytes32[]",
          "name": "_proof",
          "type": "bytes32[]"
        }
      ],
      "name": "isOGWhitelisted",
      "outputs": [
        {
          "internalType": "bool",
          "name": "",
          "type": "bool"
        }
      ],
      "stateMutability": "view",
      "type": "function"
    },
    {
      "inputs": [
        {
          "internalType": "address",
          "name": "_address",
          "type": "address"
        },
        {
          "internalType": "bytes32[]",
          "name": "_proof",
          "type": "bytes32[]"
        }
      ],
      "name": "isWhitelisted",
      "outputs": [
        {
          "internalType": "bool",
          "name": "",
          "type": "bool"
        }
      ],
      "stateMutability": "view",
      "type": "function"
    },
    {
      "inputs": [],
      "name": "name",
      "outputs": [
        {
          "internalType": "string",
          "name": "",
          "type": "string"
        }
      ],
      "stateMutability": "view",
      "type": "function"
    },
    {
      "inputs": [],
      "name": "owner",
      "outputs": [
        {
          "internalType": "address",
          "name": "",
          "type": "address"
        }
      ],
      "stateMutability": "view",
      "type": "function"
    },
    {
      "inputs": [
        {
          "internalType": "uint256",
          "name": "tokenId",
          "type": "uint256"
        }
      ],
      "name": "ownerOf",
      "outputs": [
        {
          "internalType": "address",
          "name": "",
          "type": "address"
        }
      ],
      "stateMutability": "view",
      "type": "function"
    },
    {
      "inputs": [],
      "name": "purchase",
      "outputs": [],
      "stateMutability": "payable",
      "type": "function"
    },
    {
      "inputs": [
        {
          "internalType": "uint256",
          "name": "_batch",
          "type": "uint256"
        }
      ],
      "name": "purchaseBatch",
      "outputs": [],
      "stateMutability": "payable",
      "type": "function"
    },
    {
      "inputs": [
        {
          "internalType": "uint256",
          "name": "_batch",
          "type": "uint256"
        },
        {
          "internalType": "bytes32[]",
          "name": "_proof",
          "type": "bytes32[]"
        }
      ],
      "name": "purchaseBatchOG",
      "outputs": [],
      "stateMutability": "payable",
      "type": "function"
    },
    {
      "inputs": [
        {
          "internalType": "uint256",
          "name": "_batch",
          "type": "uint256"
        },
        {
          "internalType": "bytes32[]",
          "name": "_proof",
          "type": "bytes32[]"
        }
      ],
      "name": "purchaseBatchWhitelist",
      "outputs": [],
      "stateMutability": "payable",
      "type": "function"
    },
    {
      "inputs": [
        {
          "internalType": "bytes32[]",
          "name": "_proof",
          "type": "bytes32[]"
        }
      ],
      "name": "purchaseOG",
      "outputs": [],
      "stateMutability": "payable",
      "type": "function"
    },
    {
      "inputs": [
        {
          "internalType": "bytes32[]",
          "name": "_proof",
          "type": "bytes32[]"
        }
      ],
      "name": "purchaseWhitelist",
      "outputs": [],
      "stateMutability": "payable",
      "type": "function"
    },
    {
      "inputs": [],
      "name": "renounceOwnership",
      "outputs": [],
      "stateMutability": "nonpayable",
      "type": "function"
    },
    {
      "inputs": [
        {
          "internalType": "address",
          "name": "_to",
          "type": "address"
        }
      ],
      "name": "reserveMint",
      "outputs": [],
      "stateMutability": "nonpayable",
      "type": "function"
    },
    {
      "inputs": [
        {
          "internalType": "address",
          "name": "from",
          "type": "address"
        },
        {
          "internalType": "address",
          "name": "to",
          "type": "address"
        },
        {
          "internalType": "uint256",
          "name": "tokenId",
          "type": "uint256"
        }
      ],
      "name": "safeTransferFrom",
      "outputs": [],
      "stateMutability": "nonpayable",
      "type": "function"
    },
    {
      "inputs": [
        {
          "internalType": "address",
          "name": "from",
          "type": "address"
        },
        {
          "internalType": "address",
          "name": "to",
          "type": "address"
        },
        {
          "internalType": "uint256",
          "name": "tokenId",
          "type": "uint256"
        },
        {
          "internalType": "bytes",
          "name": "data",
          "type": "bytes"
        }
      ],
      "name": "safeTransferFrom",
      "outputs": [],
      "stateMutability": "nonpayable",
      "type": "function"
    },
    {
      "inputs": [
        {
          "internalType": "address",
          "name": "operator",
          "type": "address"
        },
        {
          "internalType": "bool",
          "name": "approved",
          "type": "bool"
        }
      ],
      "name": "setApprovalForAll",
      "outputs": [],
      "stateMutability": "nonpayable",
      "type": "function"
    },
    {
      "inputs": [
        {
          "internalType": "string",
          "name": "baseURI",
          "type": "string"
        }
      ],
      "name": "setBaseURI",
      "outputs": [],
      "stateMutability": "nonpayable",
      "type": "function"
    },
    {
      "inputs": [
        {
          "internalType": "bytes4",
          "name": "interfaceId",
          "type": "bytes4"
        }
      ],
      "name": "supportsInterface",
      "outputs": [
        {
          "internalType": "bool",
          "name": "",
          "type": "bool"
        }
      ],
      "stateMutability": "view",
      "type": "function"
    },
    {
      "inputs": [],
      "name": "symbol",
      "outputs": [
        {
          "internalType": "string",
          "name": "",
          "type": "string"
        }
      ],
      "stateMutability": "view",
      "type": "function"
    },
    {
      "inputs": [
        {
          "internalType": "uint256",
          "name": "tokenId",
          "type": "uint256"
        }
      ],
      "name": "tokenURI",
      "outputs": [
        {
          "internalType": "string",
          "name": "",
          "type": "string"
        }
      ],
      "stateMutability": "view",
      "type": "function"
    },
    {
      "inputs": [
        {
          "internalType": "address",
          "name": "from",
          "type": "address"
        },
        {
          "internalType": "address",
          "name": "to",
          "type": "address"
        },
        {
          "internalType": "uint256",
          "name": "tokenId",
          "type": "uint256"
        }
      ],
      "name": "transferFrom",
      "outputs": [],
      "stateMutability": "nonpayable",
      "type": "function"
    },
    {
      "inputs": [
        {
          "internalType": "address",
          "name": "newOwner",
          "type": "address"
        }
      ],
      "name": "transferOwnership",
      "outputs": [],
      "stateMutability": "nonpayable",
      "type": "function"
    },
    {
      "inputs": [
        {
          "internalType": "address",
          "name": "_owner",
          "type": "address"
        }
      ],
      "name": "walletOfOwner",
      "outputs": [
        {
          "internalType": "uint256[]",
          "name": "",
          "type": "uint256[]"
        }
      ],
      "stateMutability": "view",
      "type": "function"
    }
  ],
  "transactionHash": "0x2708984cd48f11af895fdfe780c0db01b7552a276c1a42046b3f11080a5d447f",
  "args": [
    "https://nft.orivium.io/nft//king",
    "0xbc762f1dcf83930ec031087f285c6d77aa513b08be37f0251fe9eb490e550a79",
    "0x44c6a70ef118d6272dc5fe9f625d6b965b1b0e98fb5ceb92234455d03a22b2ff",
    "100000000000000",
    "0xD9F4b459d0f1AFE9fF9F6C4735376B8fdF9f544B"
  ],
  "numDeployments": 1,
  "solcInputHash": "de337cae2c6b8f4b3fb97cf45ca2192f",
  "bytecode": "0x60c06040523480156200001157600080fd5b50604051620033cf380380620033cf833981016040819052620000349162000846565b838333604051806040016040528060048152602001634b696e6760e01b815250604051806040016040528060048152602001634b494e4760e01b8152508160009081620000829190620009be565b506001620000918282620009be565b50506001600655506001600160a01b038116620000c957604051631e4fbdf760e01b8152600060048201526024015b60405180910390fd5b620000d4816200013b565b50808203620000f657604051637690a75b60e11b815260040160405180910390fd5b6008919091556009556200010a856200018d565b60808290526001600160a01b03811660a052610fa0600b5562000130816101bc620001a9565b505050505062000b35565b600780546001600160a01b038381166001600160a01b0319831681179093556040519116919082907f8be0079c531659141344cd1fd0a4f28419497f9722a3daafe3b4186f6b6457e090600090a35050565b620001976200020d565b600c620001a58282620009be565b5050565b61115c81600b54620001bc919062000a8a565b1115620001dc576040516352df9fe560e01b815260040160405180910390fd5b60005b818110156200020857620001f3836200023e565b6200020060018262000a8a565b9050620001df565b505050565b6007546001600160a01b031633146200023c5760405163118cdaa760e01b8152336004820152602401620000c0565b565b6001600b600082825462000253919062000a8a565b9091555050600b546040516001600160a01b03831681527f02a86d989f4353b10e0c6ff0ded62753e34c194d4598aac329a0f524de8a8bee9060200160405180910390a2620002ab81600b54620002ae60201b60201c565b50565b620001a5828260405180602001604052806000815250620002d060201b60201c565b620002dc8383620002eb565b62000208600084848462000355565b6001600160a01b0382166200031757604051633250574960e11b815260006004820152602401620000c0565b6000620003268383836200048c565b90506001600160a01b0381161562000208576040516339e3563760e11b815260006004820152602401620000c0565b6001600160a01b0383163b156200048657604051630a85bd0160e11b81526001600160a01b0384169063150b7a02906200039a90339088908790879060040162000aac565b6020604051808303816000875af1925050508015620003d8575060408051601f3d908101601f19168201909252620003d59181019062000b02565b60015b62000446573d80801562000409576040519150601f19603f3d011682016040523d82523d6000602084013e6200040e565b606091505b5080516000036200043e57604051633250574960e11b81526001600160a01b0385166004820152602401620000c0565b805181602001fd5b6001600160e01b03198116630a85bd0160e11b146200048457604051633250574960e11b81526001600160a01b0385166004820152602401620000c0565b505b50505050565b6000828152600260205260408120546001600160a01b0390811690831615620004bc57620004bc8184866200058b565b6001600160a01b03811615620004fc57620004db6000858180620005f5565b6001600160a01b038116600090815260036020526040902080546000190190555b6001600160a01b038516156200052c576001600160a01b0385166000908152600360205260409020805460010190555b60008481526002602052604080822080546001600160a01b0319166001600160a01b0389811691821790925591518793918516917fddf252ad1be2c89b69c2b068fc378daa952ba7f163c4a11628f55a4df523b3ef91a4949350505050565b6200059883838362000723565b62000208576001600160a01b038316620005c957604051637e27328960e01b815260048101829052602401620000c0565b60405163177e802f60e01b81526001600160a01b038316600482015260248101829052604401620000c0565b80806200060a57506001600160a01b03821615155b15620006f35760006200061d84620007ac565b90506001600160a01b038316158015906200064a5750826001600160a01b0316816001600160a01b031614155b80156200067d57506001600160a01b0380821660009081526005602090815260408083209387168352929052205460ff16155b15620006a85760405163a9fbf51f60e01b81526001600160a01b0384166004820152602401620000c0565b8115620006f15783856001600160a01b0316826001600160a01b03167f8c5be1e5ebec7d5bd14f71427d1e84f3dd0314c0f7b2291e5b200ac8c7c3b92560405160405180910390a45b505b5050600090815260046020526040902080546001600160a01b0319166001600160a01b0392909216919091179055565b60006001600160a01b03831615801590620007a45750826001600160a01b0316846001600160a01b031614806200077f57506001600160a01b0380851660009081526005602090815260408083209387168352929052205460ff165b80620007a457506000828152600460205260409020546001600160a01b038481169116145b949350505050565b6000818152600260205260408120546001600160a01b031680620007e757604051637e27328960e01b815260048101849052602401620000c0565b92915050565b634e487b7160e01b600052604160045260246000fd5b60005b838110156200082057818101518382015260200162000806565b50506000910152565b80516001600160a01b03811681146200084157600080fd5b919050565b600080600080600060a086880312156200085f57600080fd5b85516001600160401b03808211156200087757600080fd5b818801915088601f8301126200088c57600080fd5b815181811115620008a157620008a1620007ed565b604051601f8201601f19908116603f01168101908382118183101715620008cc57620008cc620007ed565b816040528281528b6020848701011115620008e657600080fd5b620008f983602083016020880162000803565b8099505050505050602086015193506040860151925060608601519150620009246080870162000829565b90509295509295909350565b600181811c908216806200094557607f821691505b6020821081036200096657634e487b7160e01b600052602260045260246000fd5b50919050565b601f8211156200020857600081815260208120601f850160051c81016020861015620009955750805b601f850160051c820191505b81811015620009b657828155600101620009a1565b505050505050565b81516001600160401b03811115620009da57620009da620007ed565b620009f281620009eb845462000930565b846200096c565b602080601f83116001811462000a2a576000841562000a115750858301515b600019600386901b1c1916600185901b178555620009b6565b600085815260208120601f198616915b8281101562000a5b5788860151825594840194600190910190840162000a3a565b508582101562000a7a5787850151600019600388901b60f8161c191681555b5050505050600190811b01905550565b80820180821115620007e757634e487b7160e01b600052601160045260246000fd5b600060018060a01b03808716835280861660208401525083604083015260806060830152825180608084015262000aeb8160a085016020870162000803565b601f01601f19169190910160a00195945050505050565b60006020828403121562000b1557600080fd5b81516001600160e01b03198116811462000b2e57600080fd5b9392505050565b60805160a05161285f62000b70600039600081816104ad0152611c820152600081816104f4015281816113b30152611533015261285f6000f3fe6080604052600436106102345760003560e01c8063715018a611610138578063a22cb465116100b0578063d1b9c4301161007f578063e9234d0311610064578063e9234d0314610619578063e985e9c514610639578063f2fde38b1461068f57600080fd5b8063d1b9c430146105ec578063d547cfb71461060457600080fd5b8063a22cb4651461056c578063acee9c4d1461058c578063b88d4fde146105ac578063c87b56dd146105cc57600080fd5b80638b410ded116101075780638da5cb5b116100ec5780638da5cb5b14610516578063902d55a51461054157806395d89b411461055757600080fd5b80638b410ded146104cf5780638d859f3e146104e257600080fd5b8063715018a61461046057806379676e0c14610475578063818e36c61461048857806382a9eabd1461049b57600080fd5b806342842e0e116101cb5780635a23dd991161019a5780636352211e1161017f5780636352211e1461041857806364edfbf01461043857806370a082311461044057600080fd5b80635a23dd99146103e557806360c9e8f31461040557600080fd5b806342842e0e14610365578063438b63001461038557806355f804b3146103b257806356efd016146103d257600080fd5b806317e9884d1161020757806317e9884d146102f75780631bb7cc991461031a5780631c1bbb3b1461032f57806323b872dd1461034557600080fd5b806301ffc9a71461023957806306fdde031461026e578063081812fc14610290578063095ea7b3146102d5575b600080fd5b34801561024557600080fd5b50610259610254366004612056565b6106af565b60405190151581526020015b60405180910390f35b34801561027a57600080fd5b50610283610794565b60405161026591906120e1565b34801561029c57600080fd5b506102b06102ab3660046120f4565b610826565b60405173ffffffffffffffffffffffffffffffffffffffff9091168152602001610265565b3480156102e157600080fd5b506102f56102f0366004612136565b61085c565b005b34801561030357600080fd5b5061030c61086b565b604051908152602001610265565b34801561032657600080fd5b5061030c610889565b34801561033b57600080fd5b5061030c610fa081565b34801561035157600080fd5b506102f5610360366004612160565b610899565b34801561037157600080fd5b506102f5610380366004612160565b61098f565b34801561039157600080fd5b506103a56103a036600461219c565b6109af565b60405161026591906121b7565b3480156103be57600080fd5b506102f56103cd3660046122be565b610aae565b6102f56103e0366004612353565b610ac2565b3480156103f157600080fd5b50610259610400366004612395565b610b78565b6102f5610413366004612353565b610c11565b34801561042457600080fd5b506102b06104333660046120f4565b610c6d565b6102f5610c78565b34801561044c57600080fd5b5061030c61045b36600461219c565b610cd4565b34801561046c57600080fd5b506102f5610d4f565b6102f56104833660046120f4565b610d61565b6102f56104963660046123e8565b610dbf565b3480156104a757600080fd5b506102b07f000000000000000000000000000000000000000000000000000000000000000081565b6102f56104dd3660046123e8565b610e73565b3480156104ee57600080fd5b5061030c7f000000000000000000000000000000000000000000000000000000000000000081565b34801561052257600080fd5b5060075473ffffffffffffffffffffffffffffffffffffffff166102b0565b34801561054d57600080fd5b5061030c61115c81565b34801561056357600080fd5b50610283610ecc565b34801561057857600080fd5b506102f561058736600461241b565b610edb565b34801561059857600080fd5b506102f56105a736600461219c565b610ee6565b3480156105b857600080fd5b506102f56105c7366004612457565b610f34565b3480156105d857600080fd5b506102836105e73660046120f4565b610f4b565b3480156105f857600080fd5b5061030c6365b67a0081565b34801561061057600080fd5b50610283610fb3565b34801561062557600080fd5b50610259610634366004612395565b611041565b34801561064557600080fd5b506102596106543660046124d3565b73ffffffffffffffffffffffffffffffffffffffff918216600090815260056020908152604080832093909416825291909152205460ff1690565b34801561069b57600080fd5b506102f56106aa36600461219c565b6110d1565b60007fffffffff0000000000000000000000000000000000000000000000000000000082167f80ac58cd00000000000000000000000000000000000000000000000000000000148061074257507fffffffff0000000000000000000000000000000000000000000000000000000082167f5b5e139f00000000000000000000000000000000000000000000000000000000145b8061078e57507f01ffc9a7000000000000000000000000000000000000000000000000000000007fffffffff000000000000000000000000000000000000000000000000000000008316145b92915050565b6060600080546107a390612506565b80601f01602080910402602001604051908101604052809291908181526020018280546107cf90612506565b801561081c5780601f106107f15761010080835404028352916020019161081c565b820191906000526020600020905b8154815290600101906020018083116107ff57829003601f168201915b5050505050905090565b600061083182611132565b5060008281526004602052604090205473ffffffffffffffffffffffffffffffffffffffff1661078e565b610867828233611191565b5050565b611c2061087c816365b67a00612588565b6108869190612588565b81565b610886611c206365b67a00612588565b73ffffffffffffffffffffffffffffffffffffffff82166108ee576040517f64a0ae92000000000000000000000000000000000000000000000000000000008152600060048201526024015b60405180910390fd5b60006108fb83833361119e565b90508373ffffffffffffffffffffffffffffffffffffffff168173ffffffffffffffffffffffffffffffffffffffff1614610989576040517f64283d7b00000000000000000000000000000000000000000000000000000000815273ffffffffffffffffffffffffffffffffffffffff808616600483015260248201849052821660448201526064016108e5565b50505050565b6109aa83838360405180602001604052806000815250610f34565b505050565b606060006109bc83610cd4565b90506000808267ffffffffffffffff8111156109da576109da6121fb565b604051908082528060200260200182016040528015610a03578160200160208202803683370190505b50905082600003610a265750506040805160008152602081019091529392505050565b60015b61115c8111610aa55760008181526002602052604090205473ffffffffffffffffffffffffffffffffffffffff878116911603610a935780828481518110610a7357610a7361259b565b602090810291909101015282610a88816125ca565b935050838314610aa5575b610a9e600182612602565b9050610a29565b50949350505050565b610ab661131b565b600c6108678282612663565b610aca61136e565b8181610ad8335b8383611041565b610b0e576040517f544be26500000000000000000000000000000000000000000000000000000000815260040160405180910390fd5b611c20610b1f816365b67a00612588565b610b299190612588565b80421015610b63576040517f48e0be4300000000000000000000000000000000000000000000000000000000815260040160405180910390fd5b610b6b6113b1565b5050506108676001600655565b6040517fffffffffffffffffffffffffffffffffffffffff000000000000000000000000606085901b1660208201526000908190603401604051602081830303815290604052805190602001209050610c08848480806020026020016040519081016040528093929190818152602001838360200280828437600092019190915250506008549150849050611457565b95945050505050565b610c1961136e565b8181610c27335b8383610b78565b610c5d576040517fd9d4528c00000000000000000000000000000000000000000000000000000000815260040160405180910390fd5b610b29611c206365b67a00612588565b600061078e82611132565b610c8061136e565b6365b67a0080421015610cbf576040517f48e0be4300000000000000000000000000000000000000000000000000000000815260040160405180910390fd5b610cc76113b1565b50610cd26001600655565b565b600073ffffffffffffffffffffffffffffffffffffffff8216610d26576040517f89c62b64000000000000000000000000000000000000000000000000000000008152600060048201526024016108e5565b5073ffffffffffffffffffffffffffffffffffffffff1660009081526003602052604090205490565b610d5761131b565b610cd2600061146d565b610d6961136e565b6365b67a0080421015610da8576040517f48e0be4300000000000000000000000000000000000000000000000000000000815260040160405180910390fd5b610db1826114e4565b50610dbc6001600655565b50565b610dc761136e565b8181610dd233610ad1565b610e08576040517f544be26500000000000000000000000000000000000000000000000000000000815260040160405180910390fd5b611c20610e19816365b67a00612588565b610e239190612588565b80421015610e5d576040517f48e0be4300000000000000000000000000000000000000000000000000000000815260040160405180910390fd5b610e66866114e4565b5050506109aa6001600655565b610e7b61136e565b8181610e8633610c20565b610ebc576040517fd9d4528c00000000000000000000000000000000000000000000000000000000815260040160405180910390fd5b610e23611c206365b67a00612588565b6060600180546107a390612506565b6108673383836115bc565b610eee61131b565b61115c600b5410610f2b576040517f52df9fe500000000000000000000000000000000000000000000000000000000815260040160405180910390fd5b610dbc816116b9565b610f3f848484610899565b61098984848484611729565b6060610f5682611132565b506000610f61611920565b90506000815111610f815760405180602001604052806000815250610fac565b80610f8b8461192f565b604051602001610f9c92919061277d565b6040516020818303038152906040525b9392505050565b600c8054610fc090612506565b80601f0160208091040260200160405190810160405280929190818152602001828054610fec90612506565b80156110395780601f1061100e57610100808354040283529160200191611039565b820191906000526020600020905b81548152906001019060200180831161101c57829003601f168201915b505050505081565b6040517fffffffffffffffffffffffffffffffffffffffff000000000000000000000000606085901b1660208201526000908190603401604051602081830303815290604052805190602001209050610c08848480806020026020016040519081016040528093929190818152602001838360200280828437600092019190915250506009549150849050611457565b6110d961131b565b73ffffffffffffffffffffffffffffffffffffffff8116611129576040517f1e4fbdf7000000000000000000000000000000000000000000000000000000008152600060048201526024016108e5565b610dbc8161146d565b60008181526002602052604081205473ffffffffffffffffffffffffffffffffffffffff168061078e576040517f7e273289000000000000000000000000000000000000000000000000000000008152600481018490526024016108e5565b6109aa83838360016119ed565b60008281526002602052604081205473ffffffffffffffffffffffffffffffffffffffff908116908316156111d8576111d8818486611bb8565b73ffffffffffffffffffffffffffffffffffffffff81161561124e576112026000856000806119ed565b73ffffffffffffffffffffffffffffffffffffffff8116600090815260036020526040902080547fffffffffffffffffffffffffffffffffffffffffffffffffffffffffffffffff0190555b73ffffffffffffffffffffffffffffffffffffffff8516156112975773ffffffffffffffffffffffffffffffffffffffff85166000908152600360205260409020805460010190555b60008481526002602052604080822080547fffffffffffffffffffffffff00000000000000000000000000000000000000001673ffffffffffffffffffffffffffffffffffffffff89811691821790925591518793918516917fddf252ad1be2c89b69c2b068fc378daa952ba7f163c4a11628f55a4df523b3ef91a4949350505050565b60075473ffffffffffffffffffffffffffffffffffffffff163314610cd2576040517f118cdaa70000000000000000000000000000000000000000000000000000000081523360048201526024016108e5565b6002600654036113aa576040517f3ee5aeb500000000000000000000000000000000000000000000000000000000815260040160405180910390fd5b6002600655565b7f0000000000000000000000000000000000000000000000000000000000000000341461140a576040517f356680b700000000000000000000000000000000000000000000000000000000815260040160405180910390fd5b610fa0600a5410611447576040517f52df9fe500000000000000000000000000000000000000000000000000000000815260040160405180910390fd5b61144f611c68565b610cd2611cca565b6000826114648584611d24565b14949350505050565b6007805473ffffffffffffffffffffffffffffffffffffffff8381167fffffffffffffffffffffffff0000000000000000000000000000000000000000831681179093556040519116919082907f8be0079c531659141344cd1fd0a4f28419497f9722a3daafe3b4186f6b6457e090600090a35050565b610fa081600a546114f59190612602565b111561152d576040517f52df9fe500000000000000000000000000000000000000000000000000000000815260040160405180910390fd5b611557817f00000000000000000000000000000000000000000000000000000000000000006127ac565b341461158f576040517f356680b700000000000000000000000000000000000000000000000000000000815260040160405180910390fd5b611597611c68565b60005b81811015610867576115aa611cca565b6115b5600182612602565b905061159a565b73ffffffffffffffffffffffffffffffffffffffff8216611621576040517f5b08ba1800000000000000000000000000000000000000000000000000000000815273ffffffffffffffffffffffffffffffffffffffff831660048201526024016108e5565b73ffffffffffffffffffffffffffffffffffffffff83811660008181526005602090815260408083209487168084529482529182902080547fffffffffffffffffffffffffffffffffffffffffffffffffffffffffffffff001686151590811790915591519182527f17307eab39ab6107e8899845ad3d59bd9653f200f220920489ca2b5937696c31910160405180910390a3505050565b6001600b60008282546116cc9190612602565b9091555050600b5460405173ffffffffffffffffffffffffffffffffffffffff831681527f02a86d989f4353b10e0c6ff0ded62753e34c194d4598aac329a0f524de8a8bee9060200160405180910390a2610dbc81600b54611d71565b73ffffffffffffffffffffffffffffffffffffffff83163b15610989576040517f150b7a0200000000000000000000000000000000000000000000000000000000815273ffffffffffffffffffffffffffffffffffffffff84169063150b7a029061179e9033908890879087906004016127c3565b6020604051808303816000875af19250505080156117f7575060408051601f3d9081017fffffffffffffffffffffffffffffffffffffffffffffffffffffffffffffffe01682019092526117f49181019061280c565b60015b611886573d808015611825576040519150601f19603f3d011682016040523d82523d6000602084013e61182a565b606091505b50805160000361187e576040517f64a0ae9200000000000000000000000000000000000000000000000000000000815273ffffffffffffffffffffffffffffffffffffffff851660048201526024016108e5565b805181602001fd5b7fffffffff0000000000000000000000000000000000000000000000000000000081167f150b7a020000000000000000000000000000000000000000000000000000000014611919576040517f64a0ae9200000000000000000000000000000000000000000000000000000000815273ffffffffffffffffffffffffffffffffffffffff851660048201526024016108e5565b5050505050565b6060600c80546107a390612506565b6060600061193c83611d8b565b600101905060008167ffffffffffffffff81111561195c5761195c6121fb565b6040519080825280601f01601f191660200182016040528015611986576020820181803683370190505b5090508181016020015b7fffffffffffffffffffffffffffffffffffffffffffffffffffffffffffffffff017f3031323334353637383961626364656600000000000000000000000000000000600a86061a8153600a850494508461199057509392505050565b8080611a0e575073ffffffffffffffffffffffffffffffffffffffff821615155b15611b63576000611a1e84611132565b905073ffffffffffffffffffffffffffffffffffffffff831615801590611a7157508273ffffffffffffffffffffffffffffffffffffffff168173ffffffffffffffffffffffffffffffffffffffff1614155b8015611ab0575073ffffffffffffffffffffffffffffffffffffffff80821660009081526005602090815260408083209387168352929052205460ff16155b15611aff576040517fa9fbf51f00000000000000000000000000000000000000000000000000000000815273ffffffffffffffffffffffffffffffffffffffff841660048201526024016108e5565b8115611b6157838573ffffffffffffffffffffffffffffffffffffffff168273ffffffffffffffffffffffffffffffffffffffff167f8c5be1e5ebec7d5bd14f71427d1e84f3dd0314c0f7b2291e5b200ac8c7c3b92560405160405180910390a45b505b5050600090815260046020526040902080547fffffffffffffffffffffffff00000000000000000000000000000000000000001673ffffffffffffffffffffffffffffffffffffffff92909216919091179055565b611bc3838383611e6d565b6109aa5773ffffffffffffffffffffffffffffffffffffffff8316611c17576040517f7e273289000000000000000000000000000000000000000000000000000000008152600481018290526024016108e5565b6040517f177e802f00000000000000000000000000000000000000000000000000000000815273ffffffffffffffffffffffffffffffffffffffff83166004820152602481018290526044016108e5565b60405173ffffffffffffffffffffffffffffffffffffffff7f000000000000000000000000000000000000000000000000000000000000000016903480156108fc02916000818181858888f19350505050158015610dbc573d6000803e3d6000fd5b6001600a6000828254611cdd9190612602565b9091555050600a546040805133815290517f02a86d989f4353b10e0c6ff0ded62753e34c194d4598aac329a0f524de8a8bee9181900360200190a2610cd233600a54611d71565b600081815b8451811015611d6957611d5582868381518110611d4857611d4861259b565b6020026020010151611f34565b915080611d61816125ca565b915050611d29565b509392505050565b610867828260405180602001604052806000815250611f60565b6000807a184f03e93ff9f4daa797ed6e38ed64bf6a1f0100000000000000008310611dd4577a184f03e93ff9f4daa797ed6e38ed64bf6a1f010000000000000000830492506040015b6d04ee2d6d415b85acef81000000008310611e00576d04ee2d6d415b85acef8100000000830492506020015b662386f26fc100008310611e1e57662386f26fc10000830492506010015b6305f5e1008310611e36576305f5e100830492506008015b6127108310611e4a57612710830492506004015b60648310611e5c576064830492506002015b600a831061078e5760010192915050565b600073ffffffffffffffffffffffffffffffffffffffff831615801590611f2c57508273ffffffffffffffffffffffffffffffffffffffff168473ffffffffffffffffffffffffffffffffffffffff161480611efb575073ffffffffffffffffffffffffffffffffffffffff80851660009081526005602090815260408083209387168352929052205460ff165b80611f2c575060008281526004602052604090205473ffffffffffffffffffffffffffffffffffffffff8481169116145b949350505050565b6000818310611f50576000828152602084905260409020610fac565b5060009182526020526040902090565b611f6a8383611f77565b6109aa6000848484611729565b73ffffffffffffffffffffffffffffffffffffffff8216611fc7576040517f64a0ae92000000000000000000000000000000000000000000000000000000008152600060048201526024016108e5565b6000611fd58383600061119e565b905073ffffffffffffffffffffffffffffffffffffffff8116156109aa576040517f73c6ac6e000000000000000000000000000000000000000000000000000000008152600060048201526024016108e5565b7fffffffff0000000000000000000000000000000000000000000000000000000081168114610dbc57600080fd5b60006020828403121561206857600080fd5b8135610fac81612028565b60005b8381101561208e578181015183820152602001612076565b50506000910152565b600081518084526120af816020860160208601612073565b601f017fffffffffffffffffffffffffffffffffffffffffffffffffffffffffffffffe0169290920160200192915050565b602081526000610fac6020830184612097565b60006020828403121561210657600080fd5b5035919050565b803573ffffffffffffffffffffffffffffffffffffffff8116811461213157600080fd5b919050565b6000806040838503121561214957600080fd5b6121528361210d565b946020939093013593505050565b60008060006060848603121561217557600080fd5b61217e8461210d565b925061218c6020850161210d565b9150604084013590509250925092565b6000602082840312156121ae57600080fd5b610fac8261210d565b6020808252825182820181905260009190848201906040850190845b818110156121ef578351835292840192918401916001016121d3565b50909695505050505050565b7f4e487b7100000000000000000000000000000000000000000000000000000000600052604160045260246000fd5b600067ffffffffffffffff80841115612245576122456121fb565b604051601f85017fffffffffffffffffffffffffffffffffffffffffffffffffffffffffffffffe0908116603f0116810190828211818310171561228b5761228b6121fb565b816040528093508581528686860111156122a457600080fd5b858560208301376000602087830101525050509392505050565b6000602082840312156122d057600080fd5b813567ffffffffffffffff8111156122e757600080fd5b8201601f810184136122f857600080fd5b611f2c8482356020840161222a565b60008083601f84011261231957600080fd5b50813567ffffffffffffffff81111561233157600080fd5b6020830191508360208260051b850101111561234c57600080fd5b9250929050565b6000806020838503121561236657600080fd5b823567ffffffffffffffff81111561237d57600080fd5b61238985828601612307565b90969095509350505050565b6000806000604084860312156123aa57600080fd5b6123b38461210d565b9250602084013567ffffffffffffffff8111156123cf57600080fd5b6123db86828701612307565b9497909650939450505050565b6000806000604084860312156123fd57600080fd5b83359250602084013567ffffffffffffffff8111156123cf57600080fd5b6000806040838503121561242e57600080fd5b6124378361210d565b91506020830135801515811461244c57600080fd5b809150509250929050565b6000806000806080858703121561246d57600080fd5b6124768561210d565b93506124846020860161210d565b925060408501359150606085013567ffffffffffffffff8111156124a757600080fd5b8501601f810187136124b857600080fd5b6124c78782356020840161222a565b91505092959194509250565b600080604083850312156124e657600080fd5b6124ef8361210d565b91506124fd6020840161210d565b90509250929050565b600181811c9082168061251a57607f821691505b602082108103612553577f4e487b7100000000000000000000000000000000000000000000000000000000600052602260045260246000fd5b50919050565b7f4e487b7100000000000000000000000000000000000000000000000000000000600052601160045260246000fd5b8181038181111561078e5761078e612559565b7f4e487b7100000000000000000000000000000000000000000000000000000000600052603260045260246000fd5b60007fffffffffffffffffffffffffffffffffffffffffffffffffffffffffffffffff82036125fb576125fb612559565b5060010190565b8082018082111561078e5761078e612559565b601f8211156109aa57600081815260208120601f850160051c8101602086101561263c5750805b601f850160051c820191505b8181101561265b57828155600101612648565b505050505050565b815167ffffffffffffffff81111561267d5761267d6121fb565b6126918161268b8454612506565b84612615565b602080601f8311600181146126e457600084156126ae5750858301515b7fffffffffffffffffffffffffffffffffffffffffffffffffffffffffffffffff600386901b1c1916600185901b17855561265b565b6000858152602081207fffffffffffffffffffffffffffffffffffffffffffffffffffffffffffffffe08616915b8281101561273157888601518255948401946001909101908401612712565b508582101561276d57878501517fffffffffffffffffffffffffffffffffffffffffffffffffffffffffffffffff600388901b60f8161c191681555b5050505050600190811b01905550565b6000835161278f818460208801612073565b8351908301906127a3818360208801612073565b01949350505050565b808202811582820484141761078e5761078e612559565b600073ffffffffffffffffffffffffffffffffffffffff8087168352808616602084015250836040830152608060608301526128026080830184612097565b9695505050505050565b60006020828403121561281e57600080fd5b8151610fac8161202856fea26469706673582212200db7f2a521947f449927fa1a66904b23c27df807d75380712d7ddd046c4a840f64736f6c63430008140033",
  "devdoc": {
    "errors": {
      "ERC721IncorrectOwner(address,uint256,address)": [
        {
          "details": "Indicates an error related to the ownership over a particular token. Used in transfers.",
          "params": {
            "owner": "Address of the current owner of a token.",
            "sender": "Address whose tokens are being transferred.",
            "tokenId": "Identifier number of a token."
          }
        }
      ],
      "ERC721InsufficientApproval(address,uint256)": [
        {
          "details": "Indicates a failure with the `operator`s approval. Used in transfers.",
          "params": {
            "operator": "Address that may be allowed to operate on tokens without being their owner.",
            "tokenId": "Identifier number of a token."
          }
        }
      ],
      "ERC721InvalidApprover(address)": [
        {
          "details": "Indicates a failure with the `approver` of a token to be approved. Used in approvals.",
          "params": {
            "approver": "Address initiating an approval operation."
          }
        }
      ],
      "ERC721InvalidOperator(address)": [
        {
          "details": "Indicates a failure with the `operator` to be approved. Used in approvals.",
          "params": {
            "operator": "Address that may be allowed to operate on tokens without being their owner."
          }
        }
      ],
      "ERC721InvalidOwner(address)": [
        {
          "details": "Indicates that an address can't be an owner. For example, `address(0)` is a forbidden owner in EIP-20. Used in balance queries.",
          "params": {
            "owner": "Address of the current owner of a token."
          }
        }
      ],
      "ERC721InvalidReceiver(address)": [
        {
          "details": "Indicates a failure with the token `receiver`. Used in transfers.",
          "params": {
            "receiver": "Address to which tokens are being transferred."
          }
        }
      ],
      "ERC721InvalidSender(address)": [
        {
          "details": "Indicates a failure with the token `sender`. Used in transfers.",
          "params": {
            "sender": "Address whose tokens are being transferred."
          }
        }
      ],
      "ERC721NonexistentToken(uint256)": [
        {
          "details": "Indicates a `tokenId` whose `owner` is the zero address.",
          "params": {
            "tokenId": "Identifier number of a token."
          }
        }
      ],
      "OwnableInvalidOwner(address)": [
        {
          "details": "The owner is not a valid owner account. (eg. `address(0)`)"
        }
      ],
      "OwnableUnauthorizedAccount(address)": [
        {
          "details": "The caller account is not authorized to perform an operation."
        }
      ],
      "ReentrancyGuardReentrantCall()": [
        {
          "details": "Unauthorized reentrant call."
        }
      ]
    },
    "events": {
      "Approval(address,address,uint256)": {
        "details": "Emitted when `owner` enables `approved` to manage the `tokenId` token."
      },
      "ApprovalForAll(address,address,bool)": {
        "details": "Emitted when `owner` enables or disables (`approved`) `operator` to manage all of its assets."
      },
      "Transfer(address,address,uint256)": {
        "details": "Emitted when `tokenId` token is transferred from `from` to `to`."
      }
    },
    "kind": "dev",
    "methods": {
      "approve(address,uint256)": {
        "details": "See {IERC721-approve}."
      },
      "balanceOf(address)": {
        "details": "See {IERC721-balanceOf}."
      },
      "getApproved(uint256)": {
        "details": "See {IERC721-getApproved}."
      },
      "isApprovedForAll(address,address)": {
        "details": "See {IERC721-isApprovedForAll}."
      },
      "name()": {
        "details": "See {IERC721Metadata-name}."
      },
      "owner()": {
        "details": "Returns the address of the current owner."
      },
      "ownerOf(uint256)": {
        "details": "See {IERC721-ownerOf}."
      },
      "renounceOwnership()": {
        "details": "Leaves the contract without owner. It will not be possible to call `onlyOwner` functions. Can only be called by the current owner. NOTE: Renouncing ownership will leave the contract without an owner, thereby disabling any functionality that is only available to the owner."
      },
      "safeTransferFrom(address,address,uint256)": {
        "details": "See {IERC721-safeTransferFrom}."
      },
      "safeTransferFrom(address,address,uint256,bytes)": {
        "details": "See {IERC721-safeTransferFrom}."
      },
      "setApprovalForAll(address,bool)": {
        "details": "See {IERC721-setApprovalForAll}."
      },
      "supportsInterface(bytes4)": {
        "details": "See {IERC165-supportsInterface}."
      },
      "symbol()": {
        "details": "See {IERC721Metadata-symbol}."
      },
      "tokenURI(uint256)": {
        "details": "See {IERC721Metadata-tokenURI}."
      },
      "transferFrom(address,address,uint256)": {
        "details": "See {IERC721-transferFrom}."
      },
      "transferOwnership(address)": {
        "details": "Transfers ownership of the contract to a new account (`newOwner`). Can only be called by the current owner."
      }
    },
    "version": 1
  },
  "userdoc": {
    "kind": "user",
    "methods": {},
    "version": 1
  },
  "storageLayout": {
    "storage": [
      {
        "astId": 317,
        "contract": "contracts/token/ERC721/King.sol:King",
        "label": "_name",
        "offset": 0,
        "slot": "0",
        "type": "t_string_storage"
      },
      {
        "astId": 319,
        "contract": "contracts/token/ERC721/King.sol:King",
        "label": "_symbol",
        "offset": 0,
        "slot": "1",
        "type": "t_string_storage"
      },
      {
        "astId": 323,
        "contract": "contracts/token/ERC721/King.sol:King",
        "label": "_owners",
        "offset": 0,
        "slot": "2",
        "type": "t_mapping(t_uint256,t_address)"
      },
      {
        "astId": 327,
        "contract": "contracts/token/ERC721/King.sol:King",
        "label": "_balances",
        "offset": 0,
        "slot": "3",
        "type": "t_mapping(t_address,t_uint256)"
      },
      {
        "astId": 331,
        "contract": "contracts/token/ERC721/King.sol:King",
        "label": "_tokenApprovals",
        "offset": 0,
        "slot": "4",
        "type": "t_mapping(t_uint256,t_address)"
      },
      {
        "astId": 337,
        "contract": "contracts/token/ERC721/King.sol:King",
        "label": "_operatorApprovals",
        "offset": 0,
        "slot": "5",
        "type": "t_mapping(t_address,t_mapping(t_address,t_bool))"
      },
      {
        "astId": 1497,
        "contract": "contracts/token/ERC721/King.sol:King",
        "label": "_status",
        "offset": 0,
        "slot": "6",
        "type": "t_uint256"
      },
      {
        "astId": 8,
        "contract": "contracts/token/ERC721/King.sol:King",
        "label": "_owner",
        "offset": 0,
        "slot": "7",
        "type": "t_address"
      },
      {
        "astId": 4056,
        "contract": "contracts/token/ERC721/King.sol:King",
        "label": "root",
        "offset": 0,
        "slot": "8",
        "type": "t_bytes32"
      },
      {
        "astId": 4058,
        "contract": "contracts/token/ERC721/King.sol:King",
        "label": "ogRoot",
        "offset": 0,
        "slot": "9",
        "type": "t_bytes32"
      },
      {
        "astId": 3568,
        "contract": "contracts/token/ERC721/King.sol:King",
        "label": "_saleTokenIdTracker",
        "offset": 0,
        "slot": "10",
        "type": "t_uint256"
      },
      {
        "astId": 3570,
        "contract": "contracts/token/ERC721/King.sol:King",
        "label": "_reservedTokenIdTracker",
        "offset": 0,
        "slot": "11",
        "type": "t_uint256"
      },
      {
        "astId": 3595,
        "contract": "contracts/token/ERC721/King.sol:King",
        "label": "baseTokenURI",
        "offset": 0,
        "slot": "12",
        "type": "t_string_storage"
      }
    ],
    "types": {
      "t_address": {
        "encoding": "inplace",
        "label": "address",
        "numberOfBytes": "20"
      },
      "t_bool": {
        "encoding": "inplace",
        "label": "bool",
        "numberOfBytes": "1"
      },
      "t_bytes32": {
        "encoding": "inplace",
        "label": "bytes32",
        "numberOfBytes": "32"
      },
      "t_mapping(t_address,t_bool)": {
        "encoding": "mapping",
        "key": "t_address",
        "label": "mapping(address => bool)",
        "numberOfBytes": "32",
        "value": "t_bool"
      },
      "t_mapping(t_address,t_mapping(t_address,t_bool))": {
        "encoding": "mapping",
        "key": "t_address",
        "label": "mapping(address => mapping(address => bool))",
        "numberOfBytes": "32",
        "value": "t_mapping(t_address,t_bool)"
      },
      "t_mapping(t_address,t_uint256)": {
        "encoding": "mapping",
        "key": "t_address",
        "label": "mapping(address => uint256)",
        "numberOfBytes": "32",
        "value": "t_uint256"
      },
      "t_mapping(t_uint256,t_address)": {
        "encoding": "mapping",
        "key": "t_uint256",
        "label": "mapping(uint256 => address)",
        "numberOfBytes": "32",
        "value": "t_address"
      },
      "t_string_storage": {
        "encoding": "bytes",
        "label": "string",
        "numberOfBytes": "32"
      },
      "t_uint256": {
        "encoding": "inplace",
        "label": "uint256",
        "numberOfBytes": "32"
      }
    }
  }
}